{
  "_format": "hh-sol-artifact-1",
  "contractName": "TokenLand",
  "sourceName": "contracts/TokenLand.sol",
  "abi": [
    {
      "inputs": [
        {
          "internalType": "address",
          "name": "initialOwner",
          "type": "address"
        }
      ],
      "stateMutability": "nonpayable",
      "type": "constructor"
    },
    {
      "inputs": [
        {
          "internalType": "address",
          "name": "sender",
          "type": "address"
        },
        {
          "internalType": "uint256",
          "name": "tokenId",
          "type": "uint256"
        },
        {
          "internalType": "address",
          "name": "owner",
          "type": "address"
        }
      ],
      "name": "ERC721IncorrectOwner",
      "type": "error"
    },
    {
      "inputs": [
        {
          "internalType": "address",
          "name": "operator",
          "type": "address"
        },
        {
          "internalType": "uint256",
          "name": "tokenId",
          "type": "uint256"
        }
      ],
      "name": "ERC721InsufficientApproval",
      "type": "error"
    },
    {
      "inputs": [
        {
          "internalType": "address",
          "name": "approver",
          "type": "address"
        }
      ],
      "name": "ERC721InvalidApprover",
      "type": "error"
    },
    {
      "inputs": [
        {
          "internalType": "address",
          "name": "operator",
          "type": "address"
        }
      ],
      "name": "ERC721InvalidOperator",
      "type": "error"
    },
    {
      "inputs": [
        {
          "internalType": "address",
          "name": "owner",
          "type": "address"
        }
      ],
      "name": "ERC721InvalidOwner",
      "type": "error"
    },
    {
      "inputs": [
        {
          "internalType": "address",
          "name": "receiver",
          "type": "address"
        }
      ],
      "name": "ERC721InvalidReceiver",
      "type": "error"
    },
    {
      "inputs": [
        {
          "internalType": "address",
          "name": "sender",
          "type": "address"
        }
      ],
      "name": "ERC721InvalidSender",
      "type": "error"
    },
    {
      "inputs": [
        {
          "internalType": "uint256",
          "name": "tokenId",
          "type": "uint256"
        }
      ],
      "name": "ERC721NonexistentToken",
      "type": "error"
    },
    {
      "inputs": [
        {
          "internalType": "address",
          "name": "owner",
          "type": "address"
        }
      ],
      "name": "OwnableInvalidOwner",
      "type": "error"
    },
    {
      "inputs": [
        {
          "internalType": "address",
          "name": "account",
          "type": "address"
        }
      ],
      "name": "OwnableUnauthorizedAccount",
      "type": "error"
    },
    {
      "anonymous": false,
      "inputs": [
        {
          "indexed": true,
          "internalType": "address",
          "name": "owner",
          "type": "address"
        },
        {
          "indexed": true,
          "internalType": "address",
          "name": "approved",
          "type": "address"
        },
        {
          "indexed": true,
          "internalType": "uint256",
          "name": "tokenId",
          "type": "uint256"
        }
      ],
      "name": "Approval",
      "type": "event"
    },
    {
      "anonymous": false,
      "inputs": [
        {
          "indexed": true,
          "internalType": "address",
          "name": "owner",
          "type": "address"
        },
        {
          "indexed": true,
          "internalType": "address",
          "name": "operator",
          "type": "address"
        },
        {
          "indexed": false,
          "internalType": "bool",
          "name": "approved",
          "type": "bool"
        }
      ],
      "name": "ApprovalForAll",
      "type": "event"
    },
    {
      "anonymous": false,
      "inputs": [
        {
          "indexed": true,
          "internalType": "address",
          "name": "previousOwner",
          "type": "address"
        },
        {
          "indexed": true,
          "internalType": "address",
          "name": "newOwner",
          "type": "address"
        }
      ],
      "name": "OwnershipTransferred",
      "type": "event"
    },
    {
      "anonymous": false,
      "inputs": [
        {
          "indexed": false,
          "internalType": "uint256",
          "name": "tokenId",
          "type": "uint256"
        },
        {
          "indexed": false,
          "internalType": "string",
          "name": "location",
          "type": "string"
        },
        {
          "indexed": false,
          "internalType": "uint256",
          "name": "price",
          "type": "uint256"
        }
      ],
      "name": "PropertyListed",
      "type": "event"
    },
    {
      "anonymous": false,
      "inputs": [
        {
          "indexed": false,
          "internalType": "uint256",
          "name": "tokenId",
          "type": "uint256"
        },
        {
          "indexed": false,
          "internalType": "address",
          "name": "buyer",
          "type": "address"
        },
        {
          "indexed": false,
          "internalType": "uint256",
          "name": "price",
          "type": "uint256"
        }
      ],
      "name": "PropertySold",
      "type": "event"
    },
    {
      "anonymous": false,
      "inputs": [
        {
          "indexed": true,
          "internalType": "address",
          "name": "from",
          "type": "address"
        },
        {
          "indexed": true,
          "internalType": "address",
          "name": "to",
          "type": "address"
        },
        {
          "indexed": true,
          "internalType": "uint256",
          "name": "tokenId",
          "type": "uint256"
        }
      ],
      "name": "Transfer",
      "type": "event"
    },
    {
      "inputs": [
        {
          "internalType": "address",
          "name": "to",
          "type": "address"
        },
        {
          "internalType": "uint256",
          "name": "tokenId",
          "type": "uint256"
        }
      ],
      "name": "approve",
      "outputs": [],
      "stateMutability": "nonpayable",
      "type": "function"
    },
    {
      "inputs": [
        {
          "internalType": "address",
          "name": "owner",
          "type": "address"
        }
      ],
      "name": "balanceOf",
      "outputs": [
        {
          "internalType": "uint256",
          "name": "",
          "type": "uint256"
        }
      ],
      "stateMutability": "view",
      "type": "function"
    },
    {
      "inputs": [
        {
          "internalType": "uint256",
          "name": "tokenId",
          "type": "uint256"
        }
      ],
      "name": "buyProperty",
      "outputs": [],
      "stateMutability": "payable",
      "type": "function"
    },
    {
      "inputs": [
        {
          "internalType": "uint256",
          "name": "tokenId",
          "type": "uint256"
        }
      ],
      "name": "getApproved",
      "outputs": [
        {
          "internalType": "address",
          "name": "",
          "type": "address"
        }
      ],
      "stateMutability": "view",
      "type": "function"
    },
    {
      "inputs": [
        {
          "internalType": "uint256",
          "name": "tokenId",
          "type": "uint256"
        }
      ],
      "name": "getProperty",
      "outputs": [
        {
          "components": [
            {
              "internalType": "string",
              "name": "location",
              "type": "string"
            },
            {
              "internalType": "uint256",
              "name": "price",
              "type": "uint256"
            },
            {
              "internalType": "bool",
              "name": "forSale",
              "type": "bool"
            }
          ],
          "internalType": "struct TokenLand.Property",
          "name": "",
          "type": "tuple"
        }
      ],
      "stateMutability": "view",
      "type": "function"
    },
    {
      "inputs": [
        {
          "internalType": "address",
          "name": "owner",
          "type": "address"
        },
        {
          "internalType": "address",
          "name": "operator",
          "type": "address"
        }
      ],
      "name": "isApprovedForAll",
      "outputs": [
        {
          "internalType": "bool",
          "name": "",
          "type": "bool"
        }
      ],
      "stateMutability": "view",
      "type": "function"
    },
    {
      "inputs": [
        {
          "internalType": "uint256",
          "name": "tokenId",
          "type": "uint256"
        },
        {
          "internalType": "uint256",
          "name": "newPrice",
          "type": "uint256"
        }
      ],
      "name": "listPropertyForSale",
      "outputs": [],
      "stateMutability": "nonpayable",
      "type": "function"
    },
    {
      "inputs": [
        {
          "internalType": "string",
          "name": "location",
          "type": "string"
        },
        {
          "internalType": "uint256",
          "name": "price",
          "type": "uint256"
        }
      ],
      "name": "mintProperty",
      "outputs": [],
      "stateMutability": "nonpayable",
      "type": "function"
    },
    {
      "inputs": [],
      "name": "name",
      "outputs": [
        {
          "internalType": "string",
          "name": "",
          "type": "string"
        }
      ],
      "stateMutability": "view",
      "type": "function"
    },
    {
      "inputs": [],
      "name": "owner",
      "outputs": [
        {
          "internalType": "address",
          "name": "",
          "type": "address"
        }
      ],
      "stateMutability": "view",
      "type": "function"
    },
    {
      "inputs": [
        {
          "internalType": "uint256",
          "name": "tokenId",
          "type": "uint256"
        }
      ],
      "name": "ownerOf",
      "outputs": [
        {
          "internalType": "address",
          "name": "",
          "type": "address"
        }
      ],
      "stateMutability": "view",
      "type": "function"
    },
    {
      "inputs": [],
      "name": "productCount",
      "outputs": [
        {
          "internalType": "uint256",
          "name": "",
          "type": "uint256"
        }
      ],
      "stateMutability": "view",
      "type": "function"
    },
    {
      "inputs": [
        {
          "internalType": "uint256",
          "name": "",
          "type": "uint256"
        }
      ],
      "name": "properties",
      "outputs": [
        {
          "internalType": "string",
          "name": "location",
          "type": "string"
        },
        {
          "internalType": "uint256",
          "name": "price",
          "type": "uint256"
        },
        {
          "internalType": "bool",
          "name": "forSale",
          "type": "bool"
        }
      ],
      "stateMutability": "view",
      "type": "function"
    },
    {
      "inputs": [],
      "name": "renounceOwnership",
      "outputs": [],
      "stateMutability": "nonpayable",
      "type": "function"
    },
    {
      "inputs": [
        {
          "internalType": "address",
          "name": "from",
          "type": "address"
        },
        {
          "internalType": "address",
          "name": "to",
          "type": "address"
        },
        {
          "internalType": "uint256",
          "name": "tokenId",
          "type": "uint256"
        }
      ],
      "name": "safeTransferFrom",
      "outputs": [],
      "stateMutability": "nonpayable",
      "type": "function"
    },
    {
      "inputs": [
        {
          "internalType": "address",
          "name": "from",
          "type": "address"
        },
        {
          "internalType": "address",
          "name": "to",
          "type": "address"
        },
        {
          "internalType": "uint256",
          "name": "tokenId",
          "type": "uint256"
        },
        {
          "internalType": "bytes",
          "name": "data",
          "type": "bytes"
        }
      ],
      "name": "safeTransferFrom",
      "outputs": [],
      "stateMutability": "nonpayable",
      "type": "function"
    },
    {
      "inputs": [
        {
          "internalType": "address",
          "name": "operator",
          "type": "address"
        },
        {
          "internalType": "bool",
          "name": "approved",
          "type": "bool"
        }
      ],
      "name": "setApprovalForAll",
      "outputs": [],
      "stateMutability": "nonpayable",
      "type": "function"
    },
    {
      "inputs": [
        {
          "internalType": "bytes4",
          "name": "interfaceId",
          "type": "bytes4"
        }
      ],
      "name": "supportsInterface",
      "outputs": [
        {
          "internalType": "bool",
          "name": "",
          "type": "bool"
        }
      ],
      "stateMutability": "view",
      "type": "function"
    },
    {
      "inputs": [],
      "name": "symbol",
      "outputs": [
        {
          "internalType": "string",
          "name": "",
          "type": "string"
        }
      ],
      "stateMutability": "view",
      "type": "function"
    },
    {
      "inputs": [
        {
          "internalType": "uint256",
          "name": "tokenId",
          "type": "uint256"
        }
      ],
      "name": "tokenURI",
      "outputs": [
        {
          "internalType": "string",
          "name": "",
          "type": "string"
        }
      ],
      "stateMutability": "view",
      "type": "function"
    },
    {
      "inputs": [
        {
          "internalType": "address",
          "name": "from",
          "type": "address"
        },
        {
          "internalType": "address",
          "name": "to",
          "type": "address"
        },
        {
          "internalType": "uint256",
          "name": "tokenId",
          "type": "uint256"
        }
      ],
      "name": "transferFrom",
      "outputs": [],
      "stateMutability": "nonpayable",
      "type": "function"
    },
    {
      "inputs": [
        {
          "internalType": "address",
          "name": "newOwner",
          "type": "address"
        }
      ],
      "name": "transferOwnership",
      "outputs": [],
      "stateMutability": "nonpayable",
      "type": "function"
    }
  ],
  "bytecode": "0x608060405234801561001057600080fd5b506040516139163803806139168339818101604052810190610032919061027a565b806040518060400160405280600981526020017f546f6b656e4c616e6400000000000000000000000000000000000000000000008152506040518060400160405280600581526020017f544c414e4400000000000000000000000000000000000000000000000000000081525081600090816100ae91906104f7565b5080600190816100be91906104f7565b505050600073ffffffffffffffffffffffffffffffffffffffff168173ffffffffffffffffffffffffffffffffffffffff16036101335760006040517f1e4fbdf700000000000000000000000000000000000000000000000000000000815260040161012a91906105d8565b60405180910390fd5b6101428161015160201b60201c565b506000600781905550506105f3565b6000600660009054906101000a900473ffffffffffffffffffffffffffffffffffffffff16905081600660006101000a81548173ffffffffffffffffffffffffffffffffffffffff021916908373ffffffffffffffffffffffffffffffffffffffff1602179055508173ffffffffffffffffffffffffffffffffffffffff168173ffffffffffffffffffffffffffffffffffffffff167f8be0079c531659141344cd1fd0a4f28419497f9722a3daafe3b4186f6b6457e060405160405180910390a35050565b600080fd5b600073ffffffffffffffffffffffffffffffffffffffff82169050919050565b60006102478261021c565b9050919050565b6102578161023c565b811461026257600080fd5b50565b6000815190506102748161024e565b92915050565b6000602082840312156102905761028f610217565b5b600061029e84828501610265565b91505092915050565b600081519050919050565b7f4e487b7100000000000000000000000000000000000000000000000000000000600052604160045260246000fd5b7f4e487b7100000000000000000000000000000000000000000000000000000000600052602260045260246000fd5b6000600282049050600182168061032857607f821691505b60208210810361033b5761033a6102e1565b5b50919050565b60008190508160005260206000209050919050565b60006020601f8301049050919050565b600082821b905092915050565b6000600883026103a37fffffffffffffffffffffffffffffffffffffffffffffffffffffffffffffffff82610366565b6103ad8683610366565b95508019841693508086168417925050509392505050565b6000819050919050565b6000819050919050565b60006103f46103ef6103ea846103c5565b6103cf565b6103c5565b9050919050565b6000819050919050565b61040e836103d9565b61042261041a826103fb565b848454610373565b825550505050565b600090565b61043761042a565b610442818484610405565b505050565b5b818110156104665761045b60008261042f565b600181019050610448565b5050565b601f8211156104ab5761047c81610341565b61048584610356565b81016020851015610494578190505b6104a86104a085610356565b830182610447565b50505b505050565b600082821c905092915050565b60006104ce600019846008026104b0565b1980831691505092915050565b60006104e783836104bd565b9150826002028217905092915050565b610500826102a7565b67ffffffffffffffff811115610519576105186102b2565b5b6105238254610310565b61052e82828561046a565b600060209050601f831160018114610561576000841561054f578287015190505b61055985826104db565b8655506105c1565b601f19841661056f86610341565b60005b8281101561059757848901518255600182019150602085019450602081019050610572565b868310156105b457848901516105b0601f8916826104bd565b8355505b6001600288020188555050505b505050505050565b6105d28161023c565b82525050565b60006020820190506105ed60008301846105c9565b92915050565b613314806106026000396000f3fe6080604052600436106101355760003560e01c806370a08231116100ab578063b88d4fde1161006f578063b88d4fde14610415578063c87b56dd1461043e578063e0f6ef871461047b578063e985e9c5146104a6578063f2fde38b146104e3578063f7b108081461050c57610135565b806370a0823114610342578063715018a61461037f5780638da5cb5b1461039657806395d89b41146103c1578063a22cb465146103ec57610135565b80630f8ab50f116100fd5780630f8ab50f1461023157806323b872dd1461025a57806332665ffb1461028357806342842e0e146102c05780636352211e146102e95780636fa830a61461032657610135565b806301ffc9a71461013a57806306fdde0314610177578063081812fc146101a2578063095ea7b3146101df5780630f55415b14610208575b600080fd5b34801561014657600080fd5b50610161600480360381019061015c919061229b565b61054b565b60405161016e91906122e3565b60405180910390f35b34801561018357600080fd5b5061018c61062d565b604051610199919061238e565b60405180910390f35b3480156101ae57600080fd5b506101c960048036038101906101c491906123e6565b6106bf565b6040516101d69190612454565b60405180910390f35b3480156101eb57600080fd5b506102066004803603810190610201919061249b565b6106db565b005b34801561021457600080fd5b5061022f600480360381019061022a91906124db565b6106f1565b005b34801561023d57600080fd5b5061025860048036038101906102539190612650565b61085e565b005b34801561026657600080fd5b50610281600480360381019061027c91906126ac565b610943565b005b34801561028f57600080fd5b506102aa60048036038101906102a591906123e6565b610a45565b6040516102b791906127b7565b60405180910390f35b3480156102cc57600080fd5b506102e760048036038101906102e291906126ac565b610ba0565b005b3480156102f557600080fd5b50610310600480360381019061030b91906123e6565b610bc0565b60405161031d9190612454565b60405180910390f35b610340600480360381019061033b91906123e6565b610bd2565b005b34801561034e57600080fd5b50610369600480360381019061036491906127d9565b610dd2565b6040516103769190612815565b60405180910390f35b34801561038b57600080fd5b50610394610e8c565b005b3480156103a257600080fd5b506103ab610ea0565b6040516103b89190612454565b60405180910390f35b3480156103cd57600080fd5b506103d6610eca565b6040516103e3919061238e565b60405180910390f35b3480156103f857600080fd5b50610413600480360381019061040e919061285c565b610f5c565b005b34801561042157600080fd5b5061043c6004803603810190610437919061293d565b610f72565b005b34801561044a57600080fd5b50610465600480360381019061046091906123e6565b610f8f565b604051610472919061238e565b60405180910390f35b34801561048757600080fd5b50610490610ff8565b60405161049d9190612815565b60405180910390f35b3480156104b257600080fd5b506104cd60048036038101906104c891906129c0565b610ffe565b6040516104da91906122e3565b60405180910390f35b3480156104ef57600080fd5b5061050a600480360381019061050591906127d9565b611092565b005b34801561051857600080fd5b50610533600480360381019061052e91906123e6565b611118565b60405161054293929190612a00565b60405180910390f35b60007f80ac58cd000000000000000000000000000000000000000000000000000000007bffffffffffffffffffffffffffffffffffffffffffffffffffffffff1916827bffffffffffffffffffffffffffffffffffffffffffffffffffffffff1916148061061657507f5b5e139f000000000000000000000000000000000000000000000000000000007bffffffffffffffffffffffffffffffffffffffffffffffffffffffff1916827bffffffffffffffffffffffffffffffffffffffffffffffffffffffff1916145b806106265750610625826111d7565b5b9050919050565b60606000805461063c90612a6d565b80601f016020809104026020016040519081016040528092919081815260200182805461066890612a6d565b80156106b55780601f1061068a576101008083540402835291602001916106b5565b820191906000526020600020905b81548152906001019060200180831161069857829003601f168201915b5050505050905090565b60006106ca82611241565b506106d4826112c9565b9050919050565b6106ed82826106e8611306565b61130e565b5050565b3373ffffffffffffffffffffffffffffffffffffffff1661071183610bc0565b73ffffffffffffffffffffffffffffffffffffffff1614610767576040517f08c379a000000000000000000000000000000000000000000000000000000000815260040161075e90612aea565b60405180910390fd5b60086000838152602001908152602001600020600101548111156107c0576040517f08c379a00000000000000000000000000000000000000000000000000000000081526004016107b790612b7c565b60405180910390fd5b60016008600084815260200190815260200160002060020160006101000a81548160ff0219169083151502179055508060086000848152602001908152602001600020600101819055507fb906962cbf3f3ecd490633cbf2018014c57107262f8d80f40a11ca0e8b31f2aa82600860008581526020019081526020016000206000018360405161085293929190612c35565b60405180910390a15050565b610866611320565b6007600081548092919061087990612ca2565b91905055506000600754905061088f33826113a7565b6040518060600160405280848152602001838152602001600115158152506008600083815260200190815260200160002060008201518160000190816108d59190612e81565b506020820151816001015560408201518160020160006101000a81548160ff0219169083151502179055509050507fb906962cbf3f3ecd490633cbf2018014c57107262f8d80f40a11ca0e8b31f2aa81848460405161093693929190612f53565b60405180910390a1505050565b600073ffffffffffffffffffffffffffffffffffffffff168273ffffffffffffffffffffffffffffffffffffffff16036109b55760006040517f64a0ae920000000000000000000000000000000000000000000000000000000081526004016109ac9190612454565b60405180910390fd5b60006109c983836109c4611306565b6113c5565b90508373ffffffffffffffffffffffffffffffffffffffff168173ffffffffffffffffffffffffffffffffffffffff1614610a3f578382826040517f64283d7b000000000000000000000000000000000000000000000000000000008152600401610a3693929190612f91565b60405180910390fd5b50505050565b610a4d61220c565b600073ffffffffffffffffffffffffffffffffffffffff16610a6e836115df565b73ffffffffffffffffffffffffffffffffffffffff1603610ac4576040517f08c379a0000000000000000000000000000000000000000000000000000000008152600401610abb90613014565b60405180910390fd5b60086000838152602001908152602001600020604051806060016040529081600082018054610af290612a6d565b80601f0160208091040260200160405190810160405280929190818152602001828054610b1e90612a6d565b8015610b6b5780601f10610b4057610100808354040283529160200191610b6b565b820191906000526020600020905b815481529060010190602001808311610b4e57829003601f168201915b50505050508152602001600182015481526020016002820160009054906101000a900460ff1615151515815250509050919050565b610bbb83838360405180602001604052806000815250610f72565b505050565b6000610bcb82611241565b9050919050565b600073ffffffffffffffffffffffffffffffffffffffff16610bf3826115df565b73ffffffffffffffffffffffffffffffffffffffff1603610c49576040517f08c379a0000000000000000000000000000000000000000000000000000000008152600401610c4090613014565b60405180910390fd5b6008600082815260200190815260200160002060020160009054906101000a900460ff16610cac576040517f08c379a0000000000000000000000000000000000000000000000000000000008152600401610ca390613080565b60405180910390fd5b6008600082815260200190815260200160002060010154341015610d05576040517f08c379a0000000000000000000000000000000000000000000000000000000008152600401610cfc906130ec565b60405180910390fd5b6000610d1082610bc0565b9050610d1d81338461161c565b60006008600084815260200190815260200160002060020160006101000a81548160ff0219169083151502179055508073ffffffffffffffffffffffffffffffffffffffff166108fc349081150290604051600060405180830381858888f19350505050158015610d92573d6000803e3d6000fd5b507ff17a6666765db393a6218bb324c4de5cc60c9ee3b981bd102ba416effc13b895823334604051610dc69392919061310c565b60405180910390a15050565b60008073ffffffffffffffffffffffffffffffffffffffff168273ffffffffffffffffffffffffffffffffffffffff1603610e455760006040517f89c62b64000000000000000000000000000000000000000000000000000000008152600401610e3c9190612454565b60405180910390fd5b600360008373ffffffffffffffffffffffffffffffffffffffff1673ffffffffffffffffffffffffffffffffffffffff168152602001908152602001600020549050919050565b610e94611320565b610e9e6000611789565b565b6000600660009054906101000a900473ffffffffffffffffffffffffffffffffffffffff16905090565b606060018054610ed990612a6d565b80601f0160208091040260200160405190810160405280929190818152602001828054610f0590612a6d565b8015610f525780601f10610f2757610100808354040283529160200191610f52565b820191906000526020600020905b815481529060010190602001808311610f3557829003601f168201915b5050505050905090565b610f6e610f67611306565b838361184f565b5050565b610f7d848484610943565b610f89848484846119be565b50505050565b6060610f9a82611241565b506000610fa5611b75565b90506000815111610fc55760405180602001604052806000815250610ff0565b80610fcf84611b8c565b604051602001610fe092919061317f565b6040516020818303038152906040525b915050919050565b60075481565b6000600560008473ffffffffffffffffffffffffffffffffffffffff1673ffffffffffffffffffffffffffffffffffffffff16815260200190815260200160002060008373ffffffffffffffffffffffffffffffffffffffff1673ffffffffffffffffffffffffffffffffffffffff16815260200190815260200160002060009054906101000a900460ff16905092915050565b61109a611320565b600073ffffffffffffffffffffffffffffffffffffffff168173ffffffffffffffffffffffffffffffffffffffff160361110c5760006040517f1e4fbdf70000000000000000000000000000000000000000000000000000000081526004016111039190612454565b60405180910390fd5b61111581611789565b50565b600860205280600052604060002060009150905080600001805461113b90612a6d565b80601f016020809104026020016040519081016040528092919081815260200182805461116790612a6d565b80156111b45780601f10611189576101008083540402835291602001916111b4565b820191906000526020600020905b81548152906001019060200180831161119757829003601f168201915b5050505050908060010154908060020160009054906101000a900460ff16905083565b60007f01ffc9a7000000000000000000000000000000000000000000000000000000007bffffffffffffffffffffffffffffffffffffffffffffffffffffffff1916827bffffffffffffffffffffffffffffffffffffffffffffffffffffffff1916149050919050565b60008061124d836115df565b9050600073ffffffffffffffffffffffffffffffffffffffff168173ffffffffffffffffffffffffffffffffffffffff16036112c057826040517f7e2732890000000000000000000000000000000000000000000000000000000081526004016112b79190612815565b60405180910390fd5b80915050919050565b60006004600083815260200190815260200160002060009054906101000a900473ffffffffffffffffffffffffffffffffffffffff169050919050565b600033905090565b61131b8383836001611c5a565b505050565b611328611306565b73ffffffffffffffffffffffffffffffffffffffff16611346610ea0565b73ffffffffffffffffffffffffffffffffffffffff16146113a557611369611306565b6040517f118cdaa700000000000000000000000000000000000000000000000000000000815260040161139c9190612454565b60405180910390fd5b565b6113c1828260405180602001604052806000815250611e1f565b5050565b6000806113d1846115df565b9050600073ffffffffffffffffffffffffffffffffffffffff168373ffffffffffffffffffffffffffffffffffffffff161461141357611412818486611e3b565b5b600073ffffffffffffffffffffffffffffffffffffffff168173ffffffffffffffffffffffffffffffffffffffff16146114a457611455600085600080611c5a565b6001600360008373ffffffffffffffffffffffffffffffffffffffff1673ffffffffffffffffffffffffffffffffffffffff168152602001908152602001600020600082825403925050819055505b600073ffffffffffffffffffffffffffffffffffffffff168573ffffffffffffffffffffffffffffffffffffffff1614611527576001600360008773ffffffffffffffffffffffffffffffffffffffff1673ffffffffffffffffffffffffffffffffffffffff168152602001908152602001600020600082825401925050819055505b846002600086815260200190815260200160002060006101000a81548173ffffffffffffffffffffffffffffffffffffffff021916908373ffffffffffffffffffffffffffffffffffffffff160217905550838573ffffffffffffffffffffffffffffffffffffffff168273ffffffffffffffffffffffffffffffffffffffff167fddf252ad1be2c89b69c2b068fc378daa952ba7f163c4a11628f55a4df523b3ef60405160405180910390a4809150509392505050565b60006002600083815260200190815260200160002060009054906101000a900473ffffffffffffffffffffffffffffffffffffffff169050919050565b600073ffffffffffffffffffffffffffffffffffffffff168273ffffffffffffffffffffffffffffffffffffffff160361168e5760006040517f64a0ae920000000000000000000000000000000000000000000000000000000081526004016116859190612454565b60405180910390fd5b600061169c838360006113c5565b9050600073ffffffffffffffffffffffffffffffffffffffff168173ffffffffffffffffffffffffffffffffffffffff160361170f57816040517f7e2732890000000000000000000000000000000000000000000000000000000081526004016117069190612815565b60405180910390fd5b8373ffffffffffffffffffffffffffffffffffffffff168173ffffffffffffffffffffffffffffffffffffffff1614611783578382826040517f64283d7b00000000000000000000000000000000000000000000000000000000815260040161177a93929190612f91565b60405180910390fd5b50505050565b6000600660009054906101000a900473ffffffffffffffffffffffffffffffffffffffff16905081600660006101000a81548173ffffffffffffffffffffffffffffffffffffffff021916908373ffffffffffffffffffffffffffffffffffffffff1602179055508173ffffffffffffffffffffffffffffffffffffffff168173ffffffffffffffffffffffffffffffffffffffff167f8be0079c531659141344cd1fd0a4f28419497f9722a3daafe3b4186f6b6457e060405160405180910390a35050565b600073ffffffffffffffffffffffffffffffffffffffff168273ffffffffffffffffffffffffffffffffffffffff16036118c057816040517f5b08ba180000000000000000000000000000000000000000000000000000000081526004016118b79190612454565b60405180910390fd5b80600560008573ffffffffffffffffffffffffffffffffffffffff1673ffffffffffffffffffffffffffffffffffffffff16815260200190815260200160002060008473ffffffffffffffffffffffffffffffffffffffff1673ffffffffffffffffffffffffffffffffffffffff16815260200190815260200160002060006101000a81548160ff0219169083151502179055508173ffffffffffffffffffffffffffffffffffffffff168373ffffffffffffffffffffffffffffffffffffffff167f17307eab39ab6107e8899845ad3d59bd9653f200f220920489ca2b5937696c31836040516119b191906122e3565b60405180910390a3505050565b60008373ffffffffffffffffffffffffffffffffffffffff163b1115611b6f578273ffffffffffffffffffffffffffffffffffffffff1663150b7a02611a02611306565b8685856040518563ffffffff1660e01b8152600401611a2494939291906131f8565b6020604051808303816000875af1925050508015611a6057506040513d601f19601f82011682018060405250810190611a5d9190613259565b60015b611ae4573d8060008114611a90576040519150601f19603f3d011682016040523d82523d6000602084013e611a95565b606091505b506000815103611adc57836040517f64a0ae92000000000000000000000000000000000000000000000000000000008152600401611ad39190612454565b60405180910390fd5b805181602001fd5b63150b7a0260e01b7bffffffffffffffffffffffffffffffffffffffffffffffffffffffff1916817bffffffffffffffffffffffffffffffffffffffffffffffffffffffff191614611b6d57836040517f64a0ae92000000000000000000000000000000000000000000000000000000008152600401611b649190612454565b60405180910390fd5b505b50505050565b606060405180602001604052806000815250905090565b606060006001611b9b84611eff565b01905060008167ffffffffffffffff811115611bba57611bb9612525565b5b6040519080825280601f01601f191660200182016040528015611bec5781602001600182028036833780820191505090505b509050600082602001820190505b600115611c4f578080600190039150507f3031323334353637383961626364656600000000000000000000000000000000600a86061a8153600a8581611c4357611c42613286565b5b04945060008503611bfa575b819350505050919050565b8080611c935750600073ffffffffffffffffffffffffffffffffffffffff168273ffffffffffffffffffffffffffffffffffffffff1614155b15611dc7576000611ca384611241565b9050600073ffffffffffffffffffffffffffffffffffffffff168373ffffffffffffffffffffffffffffffffffffffff1614158015611d0e57508273ffffffffffffffffffffffffffffffffffffffff168173ffffffffffffffffffffffffffffffffffffffff1614155b8015611d215750611d1f8184610ffe565b155b15611d6357826040517fa9fbf51f000000000000000000000000000000000000000000000000000000008152600401611d5a9190612454565b60405180910390fd5b8115611dc557838573ffffffffffffffffffffffffffffffffffffffff168273ffffffffffffffffffffffffffffffffffffffff167f8c5be1e5ebec7d5bd14f71427d1e84f3dd0314c0f7b2291e5b200ac8c7c3b92560405160405180910390a45b505b836004600085815260200190815260200160002060006101000a81548173ffffffffffffffffffffffffffffffffffffffff021916908373ffffffffffffffffffffffffffffffffffffffff16021790555050505050565b611e298383612052565b611e3660008484846119be565b505050565b611e4683838361214b565b611efa57600073ffffffffffffffffffffffffffffffffffffffff168373ffffffffffffffffffffffffffffffffffffffff1603611ebb57806040517f7e273289000000000000000000000000000000000000000000000000000000008152600401611eb29190612815565b60405180910390fd5b81816040517f177e802f000000000000000000000000000000000000000000000000000000008152600401611ef19291906132b5565b60405180910390fd5b505050565b600080600090507a184f03e93ff9f4daa797ed6e38ed64bf6a1f0100000000000000008310611f5d577a184f03e93ff9f4daa797ed6e38ed64bf6a1f0100000000000000008381611f5357611f52613286565b5b0492506040810190505b6d04ee2d6d415b85acef81000000008310611f9a576d04ee2d6d415b85acef81000000008381611f9057611f8f613286565b5b0492506020810190505b662386f26fc100008310611fc957662386f26fc100008381611fbf57611fbe613286565b5b0492506010810190505b6305f5e1008310611ff2576305f5e1008381611fe857611fe7613286565b5b0492506008810190505b612710831061201757612710838161200d5761200c613286565b5b0492506004810190505b6064831061203a57606483816120305761202f613286565b5b0492506002810190505b600a8310612049576001810190505b80915050919050565b600073ffffffffffffffffffffffffffffffffffffffff168273ffffffffffffffffffffffffffffffffffffffff16036120c45760006040517f64a0ae920000000000000000000000000000000000000000000000000000000081526004016120bb9190612454565b60405180910390fd5b60006120d2838360006113c5565b9050600073ffffffffffffffffffffffffffffffffffffffff168173ffffffffffffffffffffffffffffffffffffffff16146121465760006040517f73c6ac6e00000000000000000000000000000000000000000000000000000000815260040161213d9190612454565b60405180910390fd5b505050565b60008073ffffffffffffffffffffffffffffffffffffffff168373ffffffffffffffffffffffffffffffffffffffff161415801561220357508273ffffffffffffffffffffffffffffffffffffffff168473ffffffffffffffffffffffffffffffffffffffff1614806121c457506121c38484610ffe565b5b8061220257508273ffffffffffffffffffffffffffffffffffffffff166121ea836112c9565b73ffffffffffffffffffffffffffffffffffffffff16145b5b90509392505050565b604051806060016040528060608152602001600081526020016000151581525090565b6000604051905090565b600080fd5b600080fd5b60007fffffffff0000000000000000000000000000000000000000000000000000000082169050919050565b61227881612243565b811461228357600080fd5b50565b6000813590506122958161226f565b92915050565b6000602082840312156122b1576122b0612239565b5b60006122bf84828501612286565b91505092915050565b60008115159050919050565b6122dd816122c8565b82525050565b60006020820190506122f860008301846122d4565b92915050565b600081519050919050565b600082825260208201905092915050565b60005b8381101561233857808201518184015260208101905061231d565b60008484015250505050565b6000601f19601f8301169050919050565b6000612360826122fe565b61236a8185612309565b935061237a81856020860161231a565b61238381612344565b840191505092915050565b600060208201905081810360008301526123a88184612355565b905092915050565b6000819050919050565b6123c3816123b0565b81146123ce57600080fd5b50565b6000813590506123e0816123ba565b92915050565b6000602082840312156123fc576123fb612239565b5b600061240a848285016123d1565b91505092915050565b600073ffffffffffffffffffffffffffffffffffffffff82169050919050565b600061243e82612413565b9050919050565b61244e81612433565b82525050565b60006020820190506124696000830184612445565b92915050565b61247881612433565b811461248357600080fd5b50565b6000813590506124958161246f565b92915050565b600080604083850312156124b2576124b1612239565b5b60006124c085828601612486565b92505060206124d1858286016123d1565b9150509250929050565b600080604083850312156124f2576124f1612239565b5b6000612500858286016123d1565b9250506020612511858286016123d1565b9150509250929050565b600080fd5b600080fd5b7f4e487b7100000000000000000000000000000000000000000000000000000000600052604160045260246000fd5b61255d82612344565b810181811067ffffffffffffffff8211171561257c5761257b612525565b5b80604052505050565b600061258f61222f565b905061259b8282612554565b919050565b600067ffffffffffffffff8211156125bb576125ba612525565b5b6125c482612344565b9050602081019050919050565b82818337600083830152505050565b60006125f36125ee846125a0565b612585565b90508281526020810184848401111561260f5761260e612520565b5b61261a8482856125d1565b509392505050565b600082601f8301126126375761263661251b565b5b81356126478482602086016125e0565b91505092915050565b6000806040838503121561266757612666612239565b5b600083013567ffffffffffffffff8111156126855761268461223e565b5b61269185828601612622565b92505060206126a2858286016123d1565b9150509250929050565b6000806000606084860312156126c5576126c4612239565b5b60006126d386828701612486565b93505060206126e486828701612486565b92505060406126f5868287016123d1565b9150509250925092565b600082825260208201905092915050565b600061271b826122fe565b61272581856126ff565b935061273581856020860161231a565b61273e81612344565b840191505092915050565b612752816123b0565b82525050565b612761816122c8565b82525050565b600060608301600083015184820360008601526127848282612710565b91505060208301516127996020860182612749565b5060408301516127ac6040860182612758565b508091505092915050565b600060208201905081810360008301526127d18184612767565b905092915050565b6000602082840312156127ef576127ee612239565b5b60006127fd84828501612486565b91505092915050565b61280f816123b0565b82525050565b600060208201905061282a6000830184612806565b92915050565b612839816122c8565b811461284457600080fd5b50565b60008135905061285681612830565b92915050565b6000806040838503121561287357612872612239565b5b600061288185828601612486565b925050602061289285828601612847565b9150509250929050565b600067ffffffffffffffff8211156128b7576128b6612525565b5b6128c082612344565b9050602081019050919050565b60006128e06128db8461289c565b612585565b9050828152602081018484840111156128fc576128fb612520565b5b6129078482856125d1565b509392505050565b600082601f8301126129245761292361251b565b5b81356129348482602086016128cd565b91505092915050565b6000806000806080858703121561295757612956612239565b5b600061296587828801612486565b945050602061297687828801612486565b9350506040612987878288016123d1565b925050606085013567ffffffffffffffff8111156129a8576129a761223e565b5b6129b48782880161290f565b91505092959194509250565b600080604083850312156129d7576129d6612239565b5b60006129e585828601612486565b92505060206129f685828601612486565b9150509250929050565b60006060820190508181036000830152612a1a8186612355565b9050612a296020830185612806565b612a3660408301846122d4565b949350505050565b7f4e487b7100000000000000000000000000000000000000000000000000000000600052602260045260246000fd5b60006002820490506001821680612a8557607f821691505b602082108103612a9857612a97612a3e565b5b50919050565b7f4e6f7420746865206f776e657200000000000000000000000000000000000000600082015250565b6000612ad4600d83612309565b9150612adf82612a9e565b602082019050919050565b60006020820190508181036000830152612b0381612ac7565b9050919050565b7f4e6577207072696365206d757374206265206c657373207468616e206f72206560008201527f7175616c20746f20746865206f726967696e616c207072696365000000000000602082015250565b6000612b66603a83612309565b9150612b7182612b0a565b604082019050919050565b60006020820190508181036000830152612b9581612b59565b9050919050565b60008190508160005260206000209050919050565b60008154612bbe81612a6d565b612bc88186612309565b94506001821660008114612be35760018114612bf957612c2c565b60ff198316865281151560200286019350612c2c565b612c0285612b9c565b60005b83811015612c2457815481890152600182019150602081019050612c05565b808801955050505b50505092915050565b6000606082019050612c4a6000830186612806565b8181036020830152612c5c8185612bb1565b9050612c6b6040830184612806565b949350505050565b7f4e487b7100000000000000000000000000000000000000000000000000000000600052601160045260246000fd5b6000612cad826123b0565b91507fffffffffffffffffffffffffffffffffffffffffffffffffffffffffffffffff8203612cdf57612cde612c73565b5b600182019050919050565b60006020601f8301049050919050565b600082821b905092915050565b600060088302612d377fffffffffffffffffffffffffffffffffffffffffffffffffffffffffffffffff82612cfa565b612d418683612cfa565b95508019841693508086168417925050509392505050565b6000819050919050565b6000612d7e612d79612d74846123b0565b612d59565b6123b0565b9050919050565b6000819050919050565b612d9883612d63565b612dac612da482612d85565b848454612d07565b825550505050565b600090565b612dc1612db4565b612dcc818484612d8f565b505050565b5b81811015612df057612de5600082612db9565b600181019050612dd2565b5050565b601f821115612e3557612e0681612b9c565b612e0f84612cea565b81016020851015612e1e578190505b612e32612e2a85612cea565b830182612dd1565b50505b505050565b600082821c905092915050565b6000612e5860001984600802612e3a565b1980831691505092915050565b6000612e718383612e47565b9150826002028217905092915050565b612e8a826122fe565b67ffffffffffffffff811115612ea357612ea2612525565b5b612ead8254612a6d565b612eb8828285612df4565b600060209050601f831160018114612eeb5760008415612ed9578287015190505b612ee38582612e65565b865550612f4b565b601f198416612ef986612b9c565b60005b82811015612f2157848901518255600182019150602085019450602081019050612efc565b86831015612f3e5784890151612f3a601f891682612e47565b8355505b6001600288020188555050505b505050505050565b6000606082019050612f686000830186612806565b8181036020830152612f7a8185612355565b9050612f896040830184612806565b949350505050565b6000606082019050612fa66000830186612445565b612fb36020830185612806565b612fc06040830184612445565b949350505050565b7f50726f706572747920646f6573206e6f74206578697374000000000000000000600082015250565b6000612ffe601783612309565b915061300982612fc8565b602082019050919050565b6000602082019050818103600083015261302d81612ff1565b9050919050565b7f50726f7065727479206973206e6f7420666f722073616c650000000000000000600082015250565b600061306a601883612309565b915061307582613034565b602082019050919050565b600060208201905081810360008301526130998161305d565b9050919050565b7f496e73756666696369656e742066756e64730000000000000000000000000000600082015250565b60006130d6601283612309565b91506130e1826130a0565b602082019050919050565b60006020820190508181036000830152613105816130c9565b9050919050565b60006060820190506131216000830186612806565b61312e6020830185612445565b61313b6040830184612806565b949350505050565b600081905092915050565b6000613159826122fe565b6131638185613143565b935061317381856020860161231a565b80840191505092915050565b600061318b828561314e565b9150613197828461314e565b91508190509392505050565b600081519050919050565b600082825260208201905092915050565b60006131ca826131a3565b6131d481856131ae565b93506131e481856020860161231a565b6131ed81612344565b840191505092915050565b600060808201905061320d6000830187612445565b61321a6020830186612445565b6132276040830185612806565b818103606083015261323981846131bf565b905095945050505050565b6000815190506132538161226f565b92915050565b60006020828403121561326f5761326e612239565b5b600061327d84828501613244565b91505092915050565b7f4e487b7100000000000000000000000000000000000000000000000000000000600052601260045260246000fd5b60006040820190506132ca6000830185612445565b6132d76020830184612806565b939250505056fea2646970667358221220664c4738184316ee7c762b032c15c745642322797658be39784a01becc96a1e064736f6c634300081b0033",
  "linkReferences": {},
  "deployedLinkReferences": {}
}